{
  "abi": [
    {
      "inputs": [
        {
          "internalType": "address",
          "name": "token_",
          "type": "address"
        },
        {
          "internalType": "uint256",
          "name": "ticketCost_",
          "type": "uint256"
        },
        {
          "internalType": "uint64",
          "name": "_subscriptionId",
          "type": "uint64"
        },
        {
          "internalType": "address",
          "name": "_vrfCoordinator",
          "type": "address"
        },
        {
          "internalType": "address",
          "name": "_linkToken",
          "type": "address"
        },
        {
          "internalType": "bytes32",
          "name": "_keyhash",
          "type": "bytes32"
        }
      ],
      "stateMutability": "nonpayable",
      "type": "constructor"
    },
    {
      "inputs": [
        {
          "internalType": "address",
          "name": "have",
          "type": "address"
        },
        {
          "internalType": "address",
          "name": "want",
          "type": "address"
        }
      ],
      "name": "OnlyCoordinatorCanFulfill",
      "type": "error"
    },
    {
      "anonymous": false,
      "inputs": [
        {
          "indexed": false,
          "internalType": "string",
          "name": "message",
          "type": "string"
        },
        {
          "indexed": false,
          "internalType": "uint256",
          "name": "data",
          "type": "uint256"
        }
      ],
      "name": "Log",
      "type": "event"
    },
    {
      "inputs": [
        {
          "internalType": "uint256",
          "name": "series_",
          "type": "uint256"
        },
        {
          "internalType": "uint256",
          "name": "ticketNumber_",
          "type": "uint256"
        }
      ],
      "name": "buyTicket",
      "outputs": [],
      "stateMutability": "nonpayable",
      "type": "function"
    },
    {
      "inputs": [],
      "name": "cashOut",
      "outputs": [],
      "stateMutability": "nonpayable",
      "type": "function"
    },
    {
      "inputs": [],
      "name": "clawBackRemainingfunds",
      "outputs": [],
      "stateMutability": "nonpayable",
      "type": "function"
    },
    {
      "inputs": [],
      "name": "currentEpoch",
      "outputs": [
        {
          "internalType": "uint256",
          "name": "",
          "type": "uint256"
        }
      ],
      "stateMutability": "view",
      "type": "function"
    },
    {
      "inputs": [
        {
          "internalType": "uint256",
          "name": "",
          "type": "uint256"
        }
      ],
      "name": "drawnNumbers",
      "outputs": [
        {
          "internalType": "uint256",
          "name": "series",
          "type": "uint256"
        },
        {
          "internalType": "uint256",
          "name": "ticketNumber",
          "type": "uint256"
        }
      ],
      "stateMutability": "view",
      "type": "function"
    },
    {
      "inputs": [
        {
          "internalType": "uint256",
          "name": "",
          "type": "uint256"
        }
      ],
      "name": "epochToPrizePool",
      "outputs": [
        {
          "internalType": "uint256",
          "name": "",
          "type": "uint256"
        }
      ],
      "stateMutability": "view",
      "type": "function"
    },
    {
      "inputs": [
        {
          "internalType": "address",
          "name": "",
          "type": "address"
        }
      ],
      "name": "holderToLotteryTicket",
      "outputs": [
        {
          "internalType": "uint256",
          "name": "series",
          "type": "uint256"
        },
        {
          "internalType": "uint256",
          "name": "ticketNumber",
          "type": "uint256"
        }
      ],
      "stateMutability": "view",
      "type": "function"
    },
    {
      "inputs": [],
      "name": "lastTimestamp",
      "outputs": [
        {
          "internalType": "uint256",
          "name": "",
          "type": "uint256"
        }
      ],
      "stateMutability": "view",
      "type": "function"
    },
    {
      "inputs": [
        {
          "internalType": "uint256",
          "name": "",
          "type": "uint256"
        },
        {
          "internalType": "uint256",
          "name": "",
          "type": "uint256"
        }
      ],
      "name": "lotteryTicketToHolder",
      "outputs": [
        {
          "internalType": "address",
          "name": "",
          "type": "address"
        }
      ],
      "stateMutability": "view",
      "type": "function"
    },
    {
      "inputs": [],
      "name": "noOfSeries",
      "outputs": [
        {
          "internalType": "uint256",
          "name": "",
          "type": "uint256"
        }
      ],
      "stateMutability": "view",
      "type": "function"
    },
    {
      "inputs": [],
      "name": "noOfTicketsBought",
      "outputs": [
        {
          "internalType": "uint256",
          "name": "",
          "type": "uint256"
        }
      ],
      "stateMutability": "view",
      "type": "function"
    },
    {
      "inputs": [],
      "name": "noOfTicketsPerSeries",
      "outputs": [
        {
          "internalType": "uint256",
          "name": "",
          "type": "uint256"
        }
      ],
      "stateMutability": "view",
      "type": "function"
    },
    {
      "inputs": [],
      "name": "owner",
      "outputs": [
        {
          "internalType": "address",
          "name": "",
          "type": "address"
        }
      ],
      "stateMutability": "view",
      "type": "function"
    },
    {
      "inputs": [
        {
          "internalType": "uint256",
          "name": "requestId",
          "type": "uint256"
        },
        {
          "internalType": "uint256[]",
          "name": "randomWords",
          "type": "uint256[]"
        }
      ],
      "name": "rawFulfillRandomWords",
      "outputs": [],
      "stateMutability": "nonpayable",
      "type": "function"
    },
    {
      "inputs": [
        {
          "internalType": "uint256",
          "name": "",
          "type": "uint256"
        }
      ],
      "name": "s_randomWords",
      "outputs": [
        {
          "internalType": "uint256",
          "name": "",
          "type": "uint256"
        }
      ],
      "stateMutability": "view",
      "type": "function"
    },
    {
      "inputs": [],
      "name": "s_requestId",
      "outputs": [
        {
          "internalType": "uint256",
          "name": "",
          "type": "uint256"
        }
      ],
      "stateMutability": "view",
      "type": "function"
    },
    {
      "inputs": [],
      "name": "state",
      "outputs": [
        {
          "internalType": "uint256",
          "name": "",
          "type": "uint256"
        }
      ],
      "stateMutability": "view",
      "type": "function"
    },
    {
      "inputs": [],
      "name": "ticketCost",
      "outputs": [
        {
          "internalType": "uint256",
          "name": "",
          "type": "uint256"
        }
      ],
      "stateMutability": "view",
      "type": "function"
    },
    {
      "inputs": [],
      "name": "token",
      "outputs": [
        {
          "internalType": "address",
          "name": "",
          "type": "address"
        }
      ],
      "stateMutability": "view",
      "type": "function"
    },
    {
      "inputs": [],
      "name": "transitionToBuyPeriod",
      "outputs": [],
      "stateMutability": "nonpayable",
      "type": "function"
    },
    {
      "inputs": [],
      "name": "transitionToCashOutPeriod",
      "outputs": [],
      "stateMutability": "nonpayable",
      "type": "function"
    }
  ],
  "bytecode": "6102006040526107d060c052620186a06101a05260036101c05260026101e05234801561002b57600080fd5b50604051620013b3380380620013b383398101604081905261004c916100b2565b6001600160a01b039283166080819052426000553360a05295831660e05261010094909452610120949094529290921661014052610180526001600160401b031661016052610127565b80516001600160a01b03811681146100ad57600080fd5b919050565b60008060008060008060c087890312156100cb57600080fd5b6100d487610096565b6020880151604089015191975095506001600160401b03811681146100f857600080fd5b935061010660608801610096565b925061011460808801610096565b915060a087015190509295509295509295565b60805160a05160c05160e05161010051610120516101405161016051610180516101a0516101c0516101e0516111b0620002036000396000610e2901526000610dd501526000610e0101526000610d7c01526000610dab0152600050506000610e5001526000818161015d01526105540152600081816103280152818161057a015281816106ac0152818161076801528181610a1801528181610ada0152610c330152600081816101ac0152610445015260008181610249015281816107360152610aab015260008181610355015261039701526111b06000f3fe608060405234801561001057600080fd5b50600436106101375760003560e01c8063793cd71e116100b8578063e63db6c31161007c578063e63db6c3146102d0578063e89e106a146102d8578063f31bc065146102e1578063f6eaffc8146102e9578063f87acbce146102fc578063fc0c546a1461032357600080fd5b8063793cd71e1461023c5780638da5cb5b14610244578063a09837031461026b578063c19d93fb1461028b578063d8f56ddb1461029457600080fd5b80634791aa0a116100ff5780634791aa0a146101ce578063592fe8ad146101d6578063695f70ed146101de57806369d0cf2d146101e7578063766718081461023357600080fd5b806319d8ac611461013c5780631eecd934146101585780631fe543e31461017f578063298ec20814610194578063460c4aa2146101a7575b600080fd5b61014560005481565b6040519081526020015b60405180910390f35b6101457f000000000000000000000000000000000000000000000000000000000000000081565b61019261018d366004610ee0565b61034a565b005b6101926101a2366004610faa565b6103d7565b6101457f000000000000000000000000000000000000000000000000000000000000000081565b610192610643565b6101926107d7565b61014560035481565b61021b6101f5366004610faa565b60046020908152600092835260408084209091529082529020546001600160a01b031681565b6040516001600160a01b03909116815260200161014f565b61014560025481565b610192610833565b61021b7f000000000000000000000000000000000000000000000000000000000000000081565b610145610279366004610fcc565b60066020526000908152604090205481565b61014560015481565b6102bb6102a2366004610fcc565b6007602052600090815260409020805460019091015482565b6040805192835260208301919091520161014f565b610145600581565b61014560095481565b610192610b83565b6101456102f7366004610fcc565b610cc2565b6102bb61030a366004610fe5565b6005602052600090815260409020805460019091015482565b61021b7f000000000000000000000000000000000000000000000000000000000000000081565b336001600160a01b037f000000000000000000000000000000000000000000000000000000000000000016146103c95760405163073e64fd60e21b81523360048201526001600160a01b037f00000000000000000000000000000000000000000000000000000000000000001660248201526044015b60405180910390fd5b6103d38282610ce3565b5050565b600154156103f75760405162461bcd60e51b81526004016103c090611015565b60058210801561040657508115155b6104435760405162461bcd60e51b815260206004820152600e60248201526d496e76616c69642073657269657360901b60448201526064016103c0565b7f00000000000000000000000000000000000000000000000000000000000000008110801561047157508015155b6104b55760405162461bcd60e51b815260206004820152601560248201527424b73b30b634b2103a34b1b5b2ba10373ab6b132b960591b60448201526064016103c0565b60008281526004602090815260408083208484529091529020546001600160a01b03161580156104f5575033600090815260056020526040902060010154155b6105395760405162461bcd60e51b8152602060048201526015602482015274151a58dad95d08185b1c9958591e48189bdd59da1d605a1b60448201526064016103c0565b6040516323b872dd60e01b81523360048201523060248201527f000000000000000000000000000000000000000000000000000000000000000060448201527f00000000000000000000000000000000000000000000000000000000000000006001600160a01b0316906323b872dd906064016020604051808303816000875af11580156105cb573d6000803e3d6000fd5b505050506040513d601f19601f820116820180604052508101906105ef919061103c565b506000828152600460209081526040808320848452825280832080546001600160a01b0319163390811790915581518083018352958652858301948552835260059091529020915182555160019190910155565b6001546002146106655760405162461bcd60e51b81526004016103c090611015565b600054610675906202a300611074565b4210156106945760405162461bcd60e51b81526004016103c09061108d565b6040516370a0823160e01b81523060048201526000907f00000000000000000000000000000000000000000000000000000000000000006001600160a01b0316906370a0823190602401602060405180830381865afa1580156106fb573d6000803e3d6000fd5b505050506040513d601f19601f8201168201806040525081019061071f91906110dd565b60405163a9059cbb60e01b81526001600160a01b037f000000000000000000000000000000000000000000000000000000000000000081166004830152602482018390529192507f00000000000000000000000000000000000000000000000000000000000000009091169063a9059cbb906044016020604051808303816000875af11580156107b3573d6000803e3d6000fd5b505050506040513d601f19601f820116820180604052508101906103d3919061103c565b60015460011480156107f857506000546107f4906202a300611074565b4210155b6108145760405162461bcd60e51b81526004016103c09061108d565b60006001819055428155600280549161082c836110f6565b9190505550565b600254600090815260076020908152604080832081518083018352815481526001918201548185015233855260059093529220825491929091148061087a57506001546002145b6108965760405162461bcd60e51b81526004016103c090611015565b81602001516000036108e15760405162461bcd60e51b815260206004820152601460248201527315da5b9b995c881b9bdd08191c985ddb881e595d60621b60448201526064016103c0565b80600101546000036109355760405162461bcd60e51b815260206004820152601a60248201527f5573657220646f65736e277420686f6c642061207469636b657400000000000060448201526064016103c0565b60025460009081526006602090815260408220546001840154918501519092918291036109bf5783548551036109a1576002600155606461097784604661110f565b610981919061113c565b9150606461099084600461110f565b61099a919061113c565b90506109fc565b60646109ae84600461110f565b6109b8919061113c565b91506109fc565b6103e884600101546109d19190611150565b6103e886602001516109e39190611150565b036109f55760646109ae84600261110f565b5050505050565b60405163a9059cbb60e01b8152336004820152602481018390527f00000000000000000000000000000000000000000000000000000000000000006001600160a01b03169063a9059cbb906044016020604051808303816000875af1158015610a69573d6000803e3d6000fd5b505050506040513d601f19601f82011682018060405250810190610a8d919061103c565b508015610b495760405163a9059cbb60e01b81526001600160a01b037f000000000000000000000000000000000000000000000000000000000000000081166004830152602482018390527f0000000000000000000000000000000000000000000000000000000000000000169063a9059cbb906044016020604051808303816000875af1158015610b23573d6000803e3d6000fd5b505050506040513d601f19601f82011682018060405250810190610b47919061103c565b505b50508154600090815260046020908152604080832060018601805485529252822080546001600160a01b0319169055928190559091555050565b600154158015610ba25750600054610b9e9062093a80611074565b4210155b610c055760405162461bcd60e51b815260206004820152602e60248201527f54696d6520706572696f64206f6620627579696e6720706572696f642068617360448201526d1b89dd081c185cdcd959081e595d60921b60648201526084016103c0565b60018054906000610c15836110f6565b9091555050426000556040516370a0823160e01b81523060048201527f00000000000000000000000000000000000000000000000000000000000000006001600160a01b0316906370a0823190602401602060405180830381865afa158015610c82573d6000803e3d6000fd5b505050506040513d601f19601f82011682018060405250810190610ca691906110dd565b600254600090815260066020526040902055610cc0610d6d565b565b60088181548110610cd257600080fd5b600091825260209091200154905081565b6000600582600081518110610cfa57610cfa611164565b6020026020010151610d0c9190611150565b905060006107d183600181518110610d2657610d26611164565b6020026020010151610d389190611150565b604080518082018252938452602080850192835260025460009081526007909152209251835551600190920191909155505050565b6040516305d3b1d360e41b81527f0000000000000000000000000000000000000000000000000000000000000000600482015267ffffffffffffffff7f000000000000000000000000000000000000000000000000000000000000000016602482015261ffff7f000000000000000000000000000000000000000000000000000000000000000016604482015263ffffffff7f0000000000000000000000000000000000000000000000000000000000000000811660648301527f00000000000000000000000000000000000000000000000000000000000000001660848201527f00000000000000000000000000000000000000000000000000000000000000006001600160a01b031690635d3b1d309060a4016020604051808303816000875af1158015610ea1573d6000803e3d6000fd5b505050506040513d601f19601f82011682018060405250810190610ec591906110dd565b600955565b634e487b7160e01b600052604160045260246000fd5b60008060408385031215610ef357600080fd5b8235915060208084013567ffffffffffffffff80821115610f1357600080fd5b818601915086601f830112610f2757600080fd5b813581811115610f3957610f39610eca565b8060051b604051601f19603f83011681018181108582111715610f5e57610f5e610eca565b604052918252848201925083810185019189831115610f7c57600080fd5b938501935b82851015610f9a57843584529385019392850192610f81565b8096505050505050509250929050565b60008060408385031215610fbd57600080fd5b50508035926020909101359150565b600060208284031215610fde57600080fd5b5035919050565b600060208284031215610ff757600080fd5b81356001600160a01b038116811461100e57600080fd5b9392505050565b6020808252600d908201526c496e76616c696420737461746560981b604082015260600190565b60006020828403121561104e57600080fd5b8151801515811461100e57600080fd5b634e487b7160e01b600052601160045260246000fd5b808201808211156110875761108761105e565b92915050565b60208082526030908201527f54696d6520706572696f64206f6620636173682d6f757420706572696f64206860408201526f185cdb89dd081c185cdcd959081e595d60821b606082015260800190565b6000602082840312156110ef57600080fd5b5051919050565b6000600182016111085761110861105e565b5060010190565b80820281158282048414176110875761108761105e565b634e487b7160e01b600052601260045260246000fd5b60008261114b5761114b611126565b500490565b60008261115f5761115f611126565b500690565b634e487b7160e01b600052603260045260246000fdfea2646970667358221220c150b79c393100f29d4310b4bdce34c47627ae83bcb0a4af6533587b121fe84764736f6c63430008120033",
  "bytecodeSha1": "708641785a04e6eb9930b2992779422590841936",
  "compiler": {
    "evm_version": "istanbul",
    "optimizer": {
      "enabled": true,
      "runs": 200
    },
    "version": "0.8.18+commit.87f61d96"
  },
  "contractName": "Lotto",
  "language": "Solidity",
  "natspec": {
    "kind": "dev",
    "methods": {},
    "version": 1
  },
  "opcodes": "PUSH1 0x80 PUSH1 0x40 MSTORE CALLVALUE DUP1 ISZERO PUSH2 0x10 JUMPI PUSH1 0x0 DUP1 REVERT JUMPDEST POP PUSH1 0x4 CALLDATASIZE LT PUSH2 0x137 JUMPI PUSH1 0x0 CALLDATALOAD PUSH1 0xE0 SHR DUP1 PUSH4 0x793CD71E GT PUSH2 0xB8 JUMPI DUP1 PUSH4 0xE63DB6C3 GT PUSH2 0x7C JUMPI DUP1 PUSH4 0xE63DB6C3 EQ PUSH2 0x2D0 JUMPI DUP1 PUSH4 0xE89E106A EQ PUSH2 0x2D8 JUMPI DUP1 PUSH4 0xF31BC065 EQ PUSH2 0x2E1 JUMPI DUP1 PUSH4 0xF6EAFFC8 EQ PUSH2 0x2E9 JUMPI DUP1 PUSH4 0xF87ACBCE EQ PUSH2 0x2FC JUMPI DUP1 PUSH4 0xFC0C546A EQ PUSH2 0x323 JUMPI PUSH1 0x0 DUP1 REVERT JUMPDEST DUP1 PUSH4 0x793CD71E EQ PUSH2 0x23C JUMPI DUP1 PUSH4 0x8DA5CB5B EQ PUSH2 0x244 JUMPI DUP1 PUSH4 0xA0983703 EQ PUSH2 0x26B JUMPI DUP1 PUSH4 0xC19D93FB EQ PUSH2 0x28B JUMPI DUP1 PUSH4 0xD8F56DDB EQ PUSH2 0x294 JUMPI PUSH1 0x0 DUP1 REVERT JUMPDEST DUP1 PUSH4 0x4791AA0A GT PUSH2 0xFF JUMPI DUP1 PUSH4 0x4791AA0A EQ PUSH2 0x1CE JUMPI DUP1 PUSH4 0x592FE8AD EQ PUSH2 0x1D6 JUMPI DUP1 PUSH4 0x695F70ED EQ PUSH2 0x1DE JUMPI DUP1 PUSH4 0x69D0CF2D EQ PUSH2 0x1E7 JUMPI DUP1 PUSH4 0x76671808 EQ PUSH2 0x233 JUMPI PUSH1 0x0 DUP1 REVERT JUMPDEST DUP1 PUSH4 0x19D8AC61 EQ PUSH2 0x13C JUMPI DUP1 PUSH4 0x1EECD934 EQ PUSH2 0x158 JUMPI DUP1 PUSH4 0x1FE543E3 EQ PUSH2 0x17F JUMPI DUP1 PUSH4 0x298EC208 EQ PUSH2 0x194 JUMPI DUP1 PUSH4 0x460C4AA2 EQ PUSH2 0x1A7 JUMPI JUMPDEST PUSH1 0x0 DUP1 REVERT JUMPDEST PUSH2 0x145 PUSH1 0x0 SLOAD DUP2 JUMP JUMPDEST PUSH1 0x40 MLOAD SWAP1 DUP2 MSTORE PUSH1 0x20 ADD JUMPDEST PUSH1 0x40 MLOAD DUP1 SWAP2 SUB SWAP1 RETURN JUMPDEST PUSH2 0x145 PUSH32 0x0 DUP2 JUMP JUMPDEST PUSH2 0x192 PUSH2 0x18D CALLDATASIZE PUSH1 0x4 PUSH2 0xEE0 JUMP JUMPDEST PUSH2 0x34A JUMP JUMPDEST STOP JUMPDEST PUSH2 0x192 PUSH2 0x1A2 CALLDATASIZE PUSH1 0x4 PUSH2 0xFAA JUMP JUMPDEST PUSH2 0x3D7 JUMP JUMPDEST PUSH2 0x145 PUSH32 0x0 DUP2 JUMP JUMPDEST PUSH2 0x192 PUSH2 0x643 JUMP JUMPDEST PUSH2 0x192 PUSH2 0x7D7 JUMP JUMPDEST PUSH2 0x145 PUSH1 0x3 SLOAD DUP2 JUMP JUMPDEST PUSH2 0x21B PUSH2 0x1F5 CALLDATASIZE PUSH1 0x4 PUSH2 0xFAA JUMP JUMPDEST PUSH1 0x4 PUSH1 0x20 SWAP1 DUP2 MSTORE PUSH1 0x0 SWAP3 DUP4 MSTORE PUSH1 0x40 DUP1 DUP5 KECCAK256 SWAP1 SWAP2 MSTORE SWAP1 DUP3 MSTORE SWAP1 KECCAK256 SLOAD PUSH1 0x1 PUSH1 0x1 PUSH1 0xA0 SHL SUB AND DUP2 JUMP JUMPDEST PUSH1 0x40 MLOAD PUSH1 0x1 PUSH1 0x1 PUSH1 0xA0 SHL SUB SWAP1 SWAP2 AND DUP2 MSTORE PUSH1 0x20 ADD PUSH2 0x14F JUMP JUMPDEST PUSH2 0x145 PUSH1 0x2 SLOAD DUP2 JUMP JUMPDEST PUSH2 0x192 PUSH2 0x833 JUMP JUMPDEST PUSH2 0x21B PUSH32 0x0 DUP2 JUMP JUMPDEST PUSH2 0x145 PUSH2 0x279 CALLDATASIZE PUSH1 0x4 PUSH2 0xFCC JUMP JUMPDEST PUSH1 0x6 PUSH1 0x20 MSTORE PUSH1 0x0 SWAP1 DUP2 MSTORE PUSH1 0x40 SWAP1 KECCAK256 SLOAD DUP2 JUMP JUMPDEST PUSH2 0x145 PUSH1 0x1 SLOAD DUP2 JUMP JUMPDEST PUSH2 0x2BB PUSH2 0x2A2 CALLDATASIZE PUSH1 0x4 PUSH2 0xFCC JUMP JUMPDEST PUSH1 0x7 PUSH1 0x20 MSTORE PUSH1 0x0 SWAP1 DUP2 MSTORE PUSH1 0x40 SWAP1 KECCAK256 DUP1 SLOAD PUSH1 0x1 SWAP1 SWAP2 ADD SLOAD DUP3 JUMP JUMPDEST PUSH1 0x40 DUP1 MLOAD SWAP3 DUP4 MSTORE PUSH1 0x20 DUP4 ADD SWAP2 SWAP1 SWAP2 MSTORE ADD PUSH2 0x14F JUMP JUMPDEST PUSH2 0x145 PUSH1 0x5 DUP2 JUMP JUMPDEST PUSH2 0x145 PUSH1 0x9 SLOAD DUP2 JUMP JUMPDEST PUSH2 0x192 PUSH2 0xB83 JUMP JUMPDEST PUSH2 0x145 PUSH2 0x2F7 CALLDATASIZE PUSH1 0x4 PUSH2 0xFCC JUMP JUMPDEST PUSH2 0xCC2 JUMP JUMPDEST PUSH2 0x2BB PUSH2 0x30A CALLDATASIZE PUSH1 0x4 PUSH2 0xFE5 JUMP JUMPDEST PUSH1 0x5 PUSH1 0x20 MSTORE PUSH1 0x0 SWAP1 DUP2 MSTORE PUSH1 0x40 SWAP1 KECCAK256 DUP1 SLOAD PUSH1 0x1 SWAP1 SWAP2 ADD SLOAD DUP3 JUMP JUMPDEST PUSH2 0x21B PUSH32 0x0 DUP2 JUMP JUMPDEST CALLER PUSH1 0x1 PUSH1 0x1 PUSH1 0xA0 SHL SUB PUSH32 0x0 AND EQ PUSH2 0x3C9 JUMPI PUSH1 0x40 MLOAD PUSH4 0x73E64FD PUSH1 0xE2 SHL DUP2 MSTORE CALLER PUSH1 0x4 DUP3 ADD MSTORE PUSH1 0x1 PUSH1 0x1 PUSH1 0xA0 SHL SUB PUSH32 0x0 AND PUSH1 0x24 DUP3 ADD MSTORE PUSH1 0x44 ADD JUMPDEST PUSH1 0x40 MLOAD DUP1 SWAP2 SUB SWAP1 REVERT JUMPDEST PUSH2 0x3D3 DUP3 DUP3 PUSH2 0xCE3 JUMP JUMPDEST POP POP JUMP JUMPDEST PUSH1 0x1 SLOAD ISZERO PUSH2 0x3F7 JUMPI PUSH1 0x40 MLOAD PUSH3 0x461BCD PUSH1 0xE5 SHL DUP2 MSTORE PUSH1 0x4 ADD PUSH2 0x3C0 SWAP1 PUSH2 0x1015 JUMP JUMPDEST PUSH1 0x5 DUP3 LT DUP1 ISZERO PUSH2 0x406 JUMPI POP DUP2 ISZERO ISZERO JUMPDEST PUSH2 0x443 JUMPI PUSH1 0x40 MLOAD PUSH3 0x461BCD PUSH1 0xE5 SHL DUP2 MSTORE PUSH1 0x20 PUSH1 0x4 DUP3 ADD MSTORE PUSH1 0xE PUSH1 0x24 DUP3 ADD MSTORE PUSH14 0x496E76616C696420736572696573 PUSH1 0x90 SHL PUSH1 0x44 DUP3 ADD MSTORE PUSH1 0x64 ADD PUSH2 0x3C0 JUMP JUMPDEST PUSH32 0x0 DUP2 LT DUP1 ISZERO PUSH2 0x471 JUMPI POP DUP1 ISZERO ISZERO JUMPDEST PUSH2 0x4B5 JUMPI PUSH1 0x40 MLOAD PUSH3 0x461BCD PUSH1 0xE5 SHL DUP2 MSTORE PUSH1 0x20 PUSH1 0x4 DUP3 ADD MSTORE PUSH1 0x15 PUSH1 0x24 DUP3 ADD MSTORE PUSH21 0x24B73B30B634B2103A34B1B5B2BA10373AB6B132B9 PUSH1 0x59 SHL PUSH1 0x44 DUP3 ADD MSTORE PUSH1 0x64 ADD PUSH2 0x3C0 JUMP JUMPDEST PUSH1 0x0 DUP3 DUP2 MSTORE PUSH1 0x4 PUSH1 0x20 SWAP1 DUP2 MSTORE PUSH1 0x40 DUP1 DUP4 KECCAK256 DUP5 DUP5 MSTORE SWAP1 SWAP2 MSTORE SWAP1 KECCAK256 SLOAD PUSH1 0x1 PUSH1 0x1 PUSH1 0xA0 SHL SUB AND ISZERO DUP1 ISZERO PUSH2 0x4F5 JUMPI POP CALLER PUSH1 0x0 SWAP1 DUP2 MSTORE PUSH1 0x5 PUSH1 0x20 MSTORE PUSH1 0x40 SWAP1 KECCAK256 PUSH1 0x1 ADD SLOAD ISZERO JUMPDEST PUSH2 0x539 JUMPI PUSH1 0x40 MLOAD PUSH3 0x461BCD PUSH1 0xE5 SHL DUP2 MSTORE PUSH1 0x20 PUSH1 0x4 DUP3 ADD MSTORE PUSH1 0x15 PUSH1 0x24 DUP3 ADD MSTORE PUSH21 0x151A58DAD95D08185B1C9958591E48189BDD59DA1D PUSH1 0x5A SHL PUSH1 0x44 DUP3 ADD MSTORE PUSH1 0x64 ADD PUSH2 0x3C0 JUMP JUMPDEST PUSH1 0x40 MLOAD PUSH4 0x23B872DD PUSH1 0xE0 SHL DUP2 MSTORE CALLER PUSH1 0x4 DUP3 ADD MSTORE ADDRESS PUSH1 0x24 DUP3 ADD MSTORE PUSH32 0x0 PUSH1 0x44 DUP3 ADD MSTORE PUSH32 0x0 PUSH1 0x1 PUSH1 0x1 PUSH1 0xA0 SHL SUB AND SWAP1 PUSH4 0x23B872DD SWAP1 PUSH1 0x64 ADD PUSH1 0x20 PUSH1 0x40 MLOAD DUP1 DUP4 SUB DUP2 PUSH1 0x0 DUP8 GAS CALL ISZERO DUP1 ISZERO PUSH2 0x5CB JUMPI RETURNDATASIZE PUSH1 0x0 DUP1 RETURNDATACOPY RETURNDATASIZE PUSH1 0x0 REVERT JUMPDEST POP POP POP POP PUSH1 0x40 MLOAD RETURNDATASIZE PUSH1 0x1F NOT PUSH1 0x1F DUP3 ADD AND DUP3 ADD DUP1 PUSH1 0x40 MSTORE POP DUP2 ADD SWAP1 PUSH2 0x5EF SWAP2 SWAP1 PUSH2 0x103C JUMP JUMPDEST POP PUSH1 0x0 DUP3 DUP2 MSTORE PUSH1 0x4 PUSH1 0x20 SWAP1 DUP2 MSTORE PUSH1 0x40 DUP1 DUP4 KECCAK256 DUP5 DUP5 MSTORE DUP3 MSTORE DUP1 DUP4 KECCAK256 DUP1 SLOAD PUSH1 0x1 PUSH1 0x1 PUSH1 0xA0 SHL SUB NOT AND CALLER SWAP1 DUP2 OR SWAP1 SWAP2 SSTORE DUP2 MLOAD DUP1 DUP4 ADD DUP4 MSTORE SWAP6 DUP7 MSTORE DUP6 DUP4 ADD SWAP5 DUP6 MSTORE DUP4 MSTORE PUSH1 0x5 SWAP1 SWAP2 MSTORE SWAP1 KECCAK256 SWAP2 MLOAD DUP3 SSTORE MLOAD PUSH1 0x1 SWAP2 SWAP1 SWAP2 ADD SSTORE JUMP JUMPDEST PUSH1 0x1 SLOAD PUSH1 0x2 EQ PUSH2 0x665 JUMPI PUSH1 0x40 MLOAD PUSH3 0x461BCD PUSH1 0xE5 SHL DUP2 MSTORE PUSH1 0x4 ADD PUSH2 0x3C0 SWAP1 PUSH2 0x1015 JUMP JUMPDEST PUSH1 0x0 SLOAD PUSH2 0x675 SWAP1 PUSH3 0x2A300 PUSH2 0x1074 JUMP JUMPDEST TIMESTAMP LT ISZERO PUSH2 0x694 JUMPI PUSH1 0x40 MLOAD PUSH3 0x461BCD PUSH1 0xE5 SHL DUP2 MSTORE PUSH1 0x4 ADD PUSH2 0x3C0 SWAP1 PUSH2 0x108D JUMP JUMPDEST PUSH1 0x40 MLOAD PUSH4 0x70A08231 PUSH1 0xE0 SHL DUP2 MSTORE ADDRESS PUSH1 0x4 DUP3 ADD MSTORE PUSH1 0x0 SWAP1 PUSH32 0x0 PUSH1 0x1 PUSH1 0x1 PUSH1 0xA0 SHL SUB AND SWAP1 PUSH4 0x70A08231 SWAP1 PUSH1 0x24 ADD PUSH1 0x20 PUSH1 0x40 MLOAD DUP1 DUP4 SUB DUP2 DUP7 GAS STATICCALL ISZERO DUP1 ISZERO PUSH2 0x6FB JUMPI RETURNDATASIZE PUSH1 0x0 DUP1 RETURNDATACOPY RETURNDATASIZE PUSH1 0x0 REVERT JUMPDEST POP POP POP POP PUSH1 0x40 MLOAD RETURNDATASIZE PUSH1 0x1F NOT PUSH1 0x1F DUP3 ADD AND DUP3 ADD DUP1 PUSH1 0x40 MSTORE POP DUP2 ADD SWAP1 PUSH2 0x71F SWAP2 SWAP1 PUSH2 0x10DD JUMP JUMPDEST PUSH1 0x40 MLOAD PUSH4 0xA9059CBB PUSH1 0xE0 SHL DUP2 MSTORE PUSH1 0x1 PUSH1 0x1 PUSH1 0xA0 SHL SUB PUSH32 0x0 DUP2 AND PUSH1 0x4 DUP4 ADD MSTORE PUSH1 0x24 DUP3 ADD DUP4 SWAP1 MSTORE SWAP2 SWAP3 POP PUSH32 0x0 SWAP1 SWAP2 AND SWAP1 PUSH4 0xA9059CBB SWAP1 PUSH1 0x44 ADD PUSH1 0x20 PUSH1 0x40 MLOAD DUP1 DUP4 SUB DUP2 PUSH1 0x0 DUP8 GAS CALL ISZERO DUP1 ISZERO PUSH2 0x7B3 JUMPI RETURNDATASIZE PUSH1 0x0 DUP1 RETURNDATACOPY RETURNDATASIZE PUSH1 0x0 REVERT JUMPDEST POP POP POP POP PUSH1 0x40 MLOAD RETURNDATASIZE PUSH1 0x1F NOT PUSH1 0x1F DUP3 ADD AND DUP3 ADD DUP1 PUSH1 0x40 MSTORE POP DUP2 ADD SWAP1 PUSH2 0x3D3 SWAP2 SWAP1 PUSH2 0x103C JUMP JUMPDEST PUSH1 0x1 SLOAD PUSH1 0x1 EQ DUP1 ISZERO PUSH2 0x7F8 JUMPI POP PUSH1 0x0 SLOAD PUSH2 0x7F4 SWAP1 PUSH3 0x2A300 PUSH2 0x1074 JUMP JUMPDEST TIMESTAMP LT ISZERO JUMPDEST PUSH2 0x814 JUMPI PUSH1 0x40 MLOAD PUSH3 0x461BCD PUSH1 0xE5 SHL DUP2 MSTORE PUSH1 0x4 ADD PUSH2 0x3C0 SWAP1 PUSH2 0x108D JUMP JUMPDEST PUSH1 0x0 PUSH1 0x1 DUP2 SWAP1 SSTORE TIMESTAMP DUP2 SSTORE PUSH1 0x2 DUP1 SLOAD SWAP2 PUSH2 0x82C DUP4 PUSH2 0x10F6 JUMP JUMPDEST SWAP2 SWAP1 POP SSTORE POP JUMP JUMPDEST PUSH1 0x2 SLOAD PUSH1 0x0 SWAP1 DUP2 MSTORE PUSH1 0x7 PUSH1 0x20 SWAP1 DUP2 MSTORE PUSH1 0x40 DUP1 DUP4 KECCAK256 DUP2 MLOAD DUP1 DUP4 ADD DUP4 MSTORE DUP2 SLOAD DUP2 MSTORE PUSH1 0x1 SWAP2 DUP3 ADD SLOAD DUP2 DUP6 ADD MSTORE CALLER DUP6 MSTORE PUSH1 0x5 SWAP1 SWAP4 MSTORE SWAP3 KECCAK256 DUP3 SLOAD SWAP2 SWAP3 SWAP1 SWAP2 EQ DUP1 PUSH2 0x87A JUMPI POP PUSH1 0x1 SLOAD PUSH1 0x2 EQ JUMPDEST PUSH2 0x896 JUMPI PUSH1 0x40 MLOAD PUSH3 0x461BCD PUSH1 0xE5 SHL DUP2 MSTORE PUSH1 0x4 ADD PUSH2 0x3C0 SWAP1 PUSH2 0x1015 JUMP JUMPDEST DUP2 PUSH1 0x20 ADD MLOAD PUSH1 0x0 SUB PUSH2 0x8E1 JUMPI PUSH1 0x40 MLOAD PUSH3 0x461BCD PUSH1 0xE5 SHL DUP2 MSTORE PUSH1 0x20 PUSH1 0x4 DUP3 ADD MSTORE PUSH1 0x14 PUSH1 0x24 DUP3 ADD MSTORE PUSH20 0x15DA5B9B995C881B9BDD08191C985DDB881E595D PUSH1 0x62 SHL PUSH1 0x44 DUP3 ADD MSTORE PUSH1 0x64 ADD PUSH2 0x3C0 JUMP JUMPDEST DUP1 PUSH1 0x1 ADD SLOAD PUSH1 0x0 SUB PUSH2 0x935 JUMPI PUSH1 0x40 MLOAD PUSH3 0x461BCD PUSH1 0xE5 SHL DUP2 MSTORE PUSH1 0x20 PUSH1 0x4 DUP3 ADD MSTORE PUSH1 0x1A PUSH1 0x24 DUP3 ADD MSTORE PUSH32 0x5573657220646F65736E277420686F6C642061207469636B6574000000000000 PUSH1 0x44 DUP3 ADD MSTORE PUSH1 0x64 ADD PUSH2 0x3C0 JUMP JUMPDEST PUSH1 0x2 SLOAD PUSH1 0x0 SWAP1 DUP2 MSTORE PUSH1 0x6 PUSH1 0x20 SWAP1 DUP2 MSTORE PUSH1 0x40 DUP3 KECCAK256 SLOAD PUSH1 0x1 DUP5 ADD SLOAD SWAP2 DUP6 ADD MLOAD SWAP1 SWAP3 SWAP2 DUP3 SWAP2 SUB PUSH2 0x9BF JUMPI DUP4 SLOAD DUP6 MLOAD SUB PUSH2 0x9A1 JUMPI PUSH1 0x2 PUSH1 0x1 SSTORE PUSH1 0x64 PUSH2 0x977 DUP5 PUSH1 0x46 PUSH2 0x110F JUMP JUMPDEST PUSH2 0x981 SWAP2 SWAP1 PUSH2 0x113C JUMP JUMPDEST SWAP2 POP PUSH1 0x64 PUSH2 0x990 DUP5 PUSH1 0x4 PUSH2 0x110F JUMP JUMPDEST PUSH2 0x99A SWAP2 SWAP1 PUSH2 0x113C JUMP JUMPDEST SWAP1 POP PUSH2 0x9FC JUMP JUMPDEST PUSH1 0x64 PUSH2 0x9AE DUP5 PUSH1 0x4 PUSH2 0x110F JUMP JUMPDEST PUSH2 0x9B8 SWAP2 SWAP1 PUSH2 0x113C JUMP JUMPDEST SWAP2 POP PUSH2 0x9FC JUMP JUMPDEST PUSH2 0x3E8 DUP5 PUSH1 0x1 ADD SLOAD PUSH2 0x9D1 SWAP2 SWAP1 PUSH2 0x1150 JUMP JUMPDEST PUSH2 0x3E8 DUP7 PUSH1 0x20 ADD MLOAD PUSH2 0x9E3 SWAP2 SWAP1 PUSH2 0x1150 JUMP JUMPDEST SUB PUSH2 0x9F5 JUMPI PUSH1 0x64 PUSH2 0x9AE DUP5 PUSH1 0x2 PUSH2 0x110F JUMP JUMPDEST POP POP POP POP POP JUMP JUMPDEST PUSH1 0x40 MLOAD PUSH4 0xA9059CBB PUSH1 0xE0 SHL DUP2 MSTORE CALLER PUSH1 0x4 DUP3 ADD MSTORE PUSH1 0x24 DUP2 ADD DUP4 SWAP1 MSTORE PUSH32 0x0 PUSH1 0x1 PUSH1 0x1 PUSH1 0xA0 SHL SUB AND SWAP1 PUSH4 0xA9059CBB SWAP1 PUSH1 0x44 ADD PUSH1 0x20 PUSH1 0x40 MLOAD DUP1 DUP4 SUB DUP2 PUSH1 0x0 DUP8 GAS CALL ISZERO DUP1 ISZERO PUSH2 0xA69 JUMPI RETURNDATASIZE PUSH1 0x0 DUP1 RETURNDATACOPY RETURNDATASIZE PUSH1 0x0 REVERT JUMPDEST POP POP POP POP PUSH1 0x40 MLOAD RETURNDATASIZE PUSH1 0x1F NOT PUSH1 0x1F DUP3 ADD AND DUP3 ADD DUP1 PUSH1 0x40 MSTORE POP DUP2 ADD SWAP1 PUSH2 0xA8D SWAP2 SWAP1 PUSH2 0x103C JUMP JUMPDEST POP DUP1 ISZERO PUSH2 0xB49 JUMPI PUSH1 0x40 MLOAD PUSH4 0xA9059CBB PUSH1 0xE0 SHL DUP2 MSTORE PUSH1 0x1 PUSH1 0x1 PUSH1 0xA0 SHL SUB PUSH32 0x0 DUP2 AND PUSH1 0x4 DUP4 ADD MSTORE PUSH1 0x24 DUP3 ADD DUP4 SWAP1 MSTORE PUSH32 0x0 AND SWAP1 PUSH4 0xA9059CBB SWAP1 PUSH1 0x44 ADD PUSH1 0x20 PUSH1 0x40 MLOAD DUP1 DUP4 SUB DUP2 PUSH1 0x0 DUP8 GAS CALL ISZERO DUP1 ISZERO PUSH2 0xB23 JUMPI RETURNDATASIZE PUSH1 0x0 DUP1 RETURNDATACOPY RETURNDATASIZE PUSH1 0x0 REVERT JUMPDEST POP POP POP POP PUSH1 0x40 MLOAD RETURNDATASIZE PUSH1 0x1F NOT PUSH1 0x1F DUP3 ADD AND DUP3 ADD DUP1 PUSH1 0x40 MSTORE POP DUP2 ADD SWAP1 PUSH2 0xB47 SWAP2 SWAP1 PUSH2 0x103C JUMP JUMPDEST POP JUMPDEST POP POP DUP2 SLOAD PUSH1 0x0 SWAP1 DUP2 MSTORE PUSH1 0x4 PUSH1 0x20 SWAP1 DUP2 MSTORE PUSH1 0x40 DUP1 DUP4 KECCAK256 PUSH1 0x1 DUP7 ADD DUP1 SLOAD DUP6 MSTORE SWAP3 MSTORE DUP3 KECCAK256 DUP1 SLOAD PUSH1 0x1 PUSH1 0x1 PUSH1 0xA0 SHL SUB NOT AND SWAP1 SSTORE SWAP3 DUP2 SWAP1 SSTORE SWAP1 SWAP2 SSTORE POP POP JUMP JUMPDEST PUSH1 0x1 SLOAD ISZERO DUP1 ISZERO PUSH2 0xBA2 JUMPI POP PUSH1 0x0 SLOAD PUSH2 0xB9E SWAP1 PUSH3 0x93A80 PUSH2 0x1074 JUMP JUMPDEST TIMESTAMP LT ISZERO JUMPDEST PUSH2 0xC05 JUMPI PUSH1 0x40 MLOAD PUSH3 0x461BCD PUSH1 0xE5 SHL DUP2 MSTORE PUSH1 0x20 PUSH1 0x4 DUP3 ADD MSTORE PUSH1 0x2E PUSH1 0x24 DUP3 ADD MSTORE PUSH32 0x54696D6520706572696F64206F6620627579696E6720706572696F6420686173 PUSH1 0x44 DUP3 ADD MSTORE PUSH14 0x1B89DD081C185CDCD959081E595D PUSH1 0x92 SHL PUSH1 0x64 DUP3 ADD MSTORE PUSH1 0x84 ADD PUSH2 0x3C0 JUMP JUMPDEST PUSH1 0x1 DUP1 SLOAD SWAP1 PUSH1 0x0 PUSH2 0xC15 DUP4 PUSH2 0x10F6 JUMP JUMPDEST SWAP1 SWAP2 SSTORE POP POP TIMESTAMP PUSH1 0x0 SSTORE PUSH1 0x40 MLOAD PUSH4 0x70A08231 PUSH1 0xE0 SHL DUP2 MSTORE ADDRESS PUSH1 0x4 DUP3 ADD MSTORE PUSH32 0x0 PUSH1 0x1 PUSH1 0x1 PUSH1 0xA0 SHL SUB AND SWAP1 PUSH4 0x70A08231 SWAP1 PUSH1 0x24 ADD PUSH1 0x20 PUSH1 0x40 MLOAD DUP1 DUP4 SUB DUP2 DUP7 GAS STATICCALL ISZERO DUP1 ISZERO PUSH2 0xC82 JUMPI RETURNDATASIZE PUSH1 0x0 DUP1 RETURNDATACOPY RETURNDATASIZE PUSH1 0x0 REVERT JUMPDEST POP POP POP POP PUSH1 0x40 MLOAD RETURNDATASIZE PUSH1 0x1F NOT PUSH1 0x1F DUP3 ADD AND DUP3 ADD DUP1 PUSH1 0x40 MSTORE POP DUP2 ADD SWAP1 PUSH2 0xCA6 SWAP2 SWAP1 PUSH2 0x10DD JUMP JUMPDEST PUSH1 0x2 SLOAD PUSH1 0x0 SWAP1 DUP2 MSTORE PUSH1 0x6 PUSH1 0x20 MSTORE PUSH1 0x40 SWAP1 KECCAK256 SSTORE PUSH2 0xCC0 PUSH2 0xD6D JUMP JUMPDEST JUMP JUMPDEST PUSH1 0x8 DUP2 DUP2 SLOAD DUP2 LT PUSH2 0xCD2 JUMPI PUSH1 0x0 DUP1 REVERT JUMPDEST PUSH1 0x0 SWAP2 DUP3 MSTORE PUSH1 0x20 SWAP1 SWAP2 KECCAK256 ADD SLOAD SWAP1 POP DUP2 JUMP JUMPDEST PUSH1 0x0 PUSH1 0x5 DUP3 PUSH1 0x0 DUP2 MLOAD DUP2 LT PUSH2 0xCFA JUMPI PUSH2 0xCFA PUSH2 0x1164 JUMP JUMPDEST PUSH1 0x20 MUL PUSH1 0x20 ADD ADD MLOAD PUSH2 0xD0C SWAP2 SWAP1 PUSH2 0x1150 JUMP JUMPDEST SWAP1 POP PUSH1 0x0 PUSH2 0x7D1 DUP4 PUSH1 0x1 DUP2 MLOAD DUP2 LT PUSH2 0xD26 JUMPI PUSH2 0xD26 PUSH2 0x1164 JUMP JUMPDEST PUSH1 0x20 MUL PUSH1 0x20 ADD ADD MLOAD PUSH2 0xD38 SWAP2 SWAP1 PUSH2 0x1150 JUMP JUMPDEST PUSH1 0x40 DUP1 MLOAD DUP1 DUP3 ADD DUP3 MSTORE SWAP4 DUP5 MSTORE PUSH1 0x20 DUP1 DUP6 ADD SWAP3 DUP4 MSTORE PUSH1 0x2 SLOAD PUSH1 0x0 SWAP1 DUP2 MSTORE PUSH1 0x7 SWAP1 SWAP2 MSTORE KECCAK256 SWAP3 MLOAD DUP4 SSTORE MLOAD PUSH1 0x1 SWAP1 SWAP3 ADD SWAP2 SWAP1 SWAP2 SSTORE POP POP POP JUMP JUMPDEST PUSH1 0x40 MLOAD PUSH4 0x5D3B1D3 PUSH1 0xE4 SHL DUP2 MSTORE PUSH32 0x0 PUSH1 0x4 DUP3 ADD MSTORE PUSH8 0xFFFFFFFFFFFFFFFF PUSH32 0x0 AND PUSH1 0x24 DUP3 ADD MSTORE PUSH2 0xFFFF PUSH32 0x0 AND PUSH1 0x44 DUP3 ADD MSTORE PUSH4 0xFFFFFFFF PUSH32 0x0 DUP2 AND PUSH1 0x64 DUP4 ADD MSTORE PUSH32 0x0 AND PUSH1 0x84 DUP3 ADD MSTORE PUSH32 0x0 PUSH1 0x1 PUSH1 0x1 PUSH1 0xA0 SHL SUB AND SWAP1 PUSH4 0x5D3B1D30 SWAP1 PUSH1 0xA4 ADD PUSH1 0x20 PUSH1 0x40 MLOAD DUP1 DUP4 SUB DUP2 PUSH1 0x0 DUP8 GAS CALL ISZERO DUP1 ISZERO PUSH2 0xEA1 JUMPI RETURNDATASIZE PUSH1 0x0 DUP1 RETURNDATACOPY RETURNDATASIZE PUSH1 0x0 REVERT JUMPDEST POP POP POP POP PUSH1 0x40 MLOAD RETURNDATASIZE PUSH1 0x1F NOT PUSH1 0x1F DUP3 ADD AND DUP3 ADD DUP1 PUSH1 0x40 MSTORE POP DUP2 ADD SWAP1 PUSH2 0xEC5 SWAP2 SWAP1 PUSH2 0x10DD JUMP JUMPDEST PUSH1 0x9 SSTORE JUMP JUMPDEST PUSH4 0x4E487B71 PUSH1 0xE0 SHL PUSH1 0x0 MSTORE PUSH1 0x41 PUSH1 0x4 MSTORE PUSH1 0x24 PUSH1 0x0 REVERT JUMPDEST PUSH1 0x0 DUP1 PUSH1 0x40 DUP4 DUP6 SUB SLT ISZERO PUSH2 0xEF3 JUMPI PUSH1 0x0 DUP1 REVERT JUMPDEST DUP3 CALLDATALOAD SWAP2 POP PUSH1 0x20 DUP1 DUP5 ADD CALLDATALOAD PUSH8 0xFFFFFFFFFFFFFFFF DUP1 DUP3 GT ISZERO PUSH2 0xF13 JUMPI PUSH1 0x0 DUP1 REVERT JUMPDEST DUP2 DUP7 ADD SWAP2 POP DUP7 PUSH1 0x1F DUP4 ADD SLT PUSH2 0xF27 JUMPI PUSH1 0x0 DUP1 REVERT JUMPDEST DUP2 CALLDATALOAD DUP2 DUP2 GT ISZERO PUSH2 0xF39 JUMPI PUSH2 0xF39 PUSH2 0xECA JUMP JUMPDEST DUP1 PUSH1 0x5 SHL PUSH1 0x40 MLOAD PUSH1 0x1F NOT PUSH1 0x3F DUP4 ADD AND DUP2 ADD DUP2 DUP2 LT DUP6 DUP3 GT OR ISZERO PUSH2 0xF5E JUMPI PUSH2 0xF5E PUSH2 0xECA JUMP JUMPDEST PUSH1 0x40 MSTORE SWAP2 DUP3 MSTORE DUP5 DUP3 ADD SWAP3 POP DUP4 DUP2 ADD DUP6 ADD SWAP2 DUP10 DUP4 GT ISZERO PUSH2 0xF7C JUMPI PUSH1 0x0 DUP1 REVERT JUMPDEST SWAP4 DUP6 ADD SWAP4 JUMPDEST DUP3 DUP6 LT ISZERO PUSH2 0xF9A JUMPI DUP5 CALLDATALOAD DUP5 MSTORE SWAP4 DUP6 ADD SWAP4 SWAP3 DUP6 ADD SWAP3 PUSH2 0xF81 JUMP JUMPDEST DUP1 SWAP7 POP POP POP POP POP POP POP SWAP3 POP SWAP3 SWAP1 POP JUMP JUMPDEST PUSH1 0x0 DUP1 PUSH1 0x40 DUP4 DUP6 SUB SLT ISZERO PUSH2 0xFBD JUMPI PUSH1 0x0 DUP1 REVERT JUMPDEST POP POP DUP1 CALLDATALOAD SWAP3 PUSH1 0x20 SWAP1 SWAP2 ADD CALLDATALOAD SWAP2 POP JUMP JUMPDEST PUSH1 0x0 PUSH1 0x20 DUP3 DUP5 SUB SLT ISZERO PUSH2 0xFDE JUMPI PUSH1 0x0 DUP1 REVERT JUMPDEST POP CALLDATALOAD SWAP2 SWAP1 POP JUMP JUMPDEST PUSH1 0x0 PUSH1 0x20 DUP3 DUP5 SUB SLT ISZERO PUSH2 0xFF7 JUMPI PUSH1 0x0 DUP1 REVERT JUMPDEST DUP2 CALLDATALOAD PUSH1 0x1 PUSH1 0x1 PUSH1 0xA0 SHL SUB DUP2 AND DUP2 EQ PUSH2 0x100E JUMPI PUSH1 0x0 DUP1 REVERT JUMPDEST SWAP4 SWAP3 POP POP POP JUMP JUMPDEST PUSH1 0x20 DUP1 DUP3 MSTORE PUSH1 0xD SWAP1 DUP3 ADD MSTORE PUSH13 0x496E76616C6964207374617465 PUSH1 0x98 SHL PUSH1 0x40 DUP3 ADD MSTORE PUSH1 0x60 ADD SWAP1 JUMP JUMPDEST PUSH1 0x0 PUSH1 0x20 DUP3 DUP5 SUB SLT ISZERO PUSH2 0x104E JUMPI PUSH1 0x0 DUP1 REVERT JUMPDEST DUP2 MLOAD DUP1 ISZERO ISZERO DUP2 EQ PUSH2 0x100E JUMPI PUSH1 0x0 DUP1 REVERT JUMPDEST PUSH4 0x4E487B71 PUSH1 0xE0 SHL PUSH1 0x0 MSTORE PUSH1 0x11 PUSH1 0x4 MSTORE PUSH1 0x24 PUSH1 0x0 REVERT JUMPDEST DUP1 DUP3 ADD DUP1 DUP3 GT ISZERO PUSH2 0x1087 JUMPI PUSH2 0x1087 PUSH2 0x105E JUMP JUMPDEST SWAP3 SWAP2 POP POP JUMP JUMPDEST PUSH1 0x20 DUP1 DUP3 MSTORE PUSH1 0x30 SWAP1 DUP3 ADD MSTORE PUSH32 0x54696D6520706572696F64206F6620636173682D6F757420706572696F642068 PUSH1 0x40 DUP3 ADD MSTORE PUSH16 0x185CDB89DD081C185CDCD959081E595D PUSH1 0x82 SHL PUSH1 0x60 DUP3 ADD MSTORE PUSH1 0x80 ADD SWAP1 JUMP JUMPDEST PUSH1 0x0 PUSH1 0x20 DUP3 DUP5 SUB SLT ISZERO PUSH2 0x10EF JUMPI PUSH1 0x0 DUP1 REVERT JUMPDEST POP MLOAD SWAP2 SWAP1 POP JUMP JUMPDEST PUSH1 0x0 PUSH1 0x1 DUP3 ADD PUSH2 0x1108 JUMPI PUSH2 0x1108 PUSH2 0x105E JUMP JUMPDEST POP PUSH1 0x1 ADD SWAP1 JUMP JUMPDEST DUP1 DUP3 MUL DUP2 ISZERO DUP3 DUP3 DIV DUP5 EQ OR PUSH2 0x1087 JUMPI PUSH2 0x1087 PUSH2 0x105E JUMP JUMPDEST PUSH4 0x4E487B71 PUSH1 0xE0 SHL PUSH1 0x0 MSTORE PUSH1 0x12 PUSH1 0x4 MSTORE PUSH1 0x24 PUSH1 0x0 REVERT JUMPDEST PUSH1 0x0 DUP3 PUSH2 0x114B JUMPI PUSH2 0x114B PUSH2 0x1126 JUMP JUMPDEST POP DIV SWAP1 JUMP JUMPDEST PUSH1 0x0 DUP3 PUSH2 0x115F JUMPI PUSH2 0x115F PUSH2 0x1126 JUMP JUMPDEST POP MOD SWAP1 JUMP JUMPDEST PUSH4 0x4E487B71 PUSH1 0xE0 SHL PUSH1 0x0 MSTORE PUSH1 0x32 PUSH1 0x4 MSTORE PUSH1 0x24 PUSH1 0x0 REVERT INVALID LOG2 PUSH5 0x6970667358 0x22 SLT KECCAK256 0xC1 POP 0xB7 SWAP13 CODECOPY BALANCE STOP CALLCODE SWAP14 NUMBER LT 0xB4 0xBD 0xCE CALLVALUE 0xC4 PUSH23 0x27AE83BCB0A4AF6533587B121FE84764736F6C63430008 SLT STOP CALLER ",
  "sha1": "d11441184bfb21f799d89da1c005e4c97a68795a",
  "source": "// SPDX-License-Identifier: UNLICENSED\npragma solidity >=0.6.2 <0.9.0;\n\nimport {IERC20} from \"./IERC20.sol\";\nimport \"@chainlink/contracts/src/v0.8/interfaces/VRFCoordinatorV2Interface.sol\";\nimport \"@chainlink/contracts/src/v0.8/interfaces/LinkTokenInterface.sol\";\nimport \"@chainlink/contracts/src/v0.8/VRFConsumerBaseV2.sol\";\n\ncontract Lotto is VRFConsumerBaseV2{\n    struct LotteryTicket {\n        uint256 series;\n        uint256 ticketNumber;\n    }\n    uint256 public lastTimestamp;\n    uint256 public state;\n    uint256 public currentEpoch;\n    uint256 public noOfTicketsBought;\n    address public immutable owner;\n    uint256 public constant noOfSeries = 5;\n    uint256 public immutable noOfTicketsPerSeries = 2000;\n    address public immutable token;\n    uint256 public immutable ticketCost;\n    mapping(uint256 => mapping(uint256 => address))\n        public lotteryTicketToHolder;\n    mapping(address => LotteryTicket) public holderToLotteryTicket;\n    mapping(uint256 => uint256) public epochToPrizePool;\n    mapping(uint256 => LotteryTicket) public drawnNumbers;\n\n    // solidity\n    VRFCoordinatorV2Interface immutable COORDINATOR;\n    LinkTokenInterface immutable LINKTOKEN;\n\n    uint64 immutable s_subscriptionId;\n    bytes32 immutable s_keyHash;\n    uint32 immutable s_callbackGasLimit = 100000;\n    uint16 immutable s_requestConfirmations = 3;\n    uint32 immutable s_numWords = 2;\n    uint256[] public s_randomWords;\n    uint256 public s_requestId;\n\n    event Log(string message, uint data);\n\n    constructor(address token_, uint256 ticketCost_,  uint64 _subscriptionId, address _vrfCoordinator, address _linkToken, bytes32 _keyhash\n    ) VRFConsumerBaseV2(_vrfCoordinator) {\n        lastTimestamp = block.timestamp;\n        owner = msg.sender;\n        token = token_;\n        ticketCost = ticketCost_;\n\n        COORDINATOR = VRFCoordinatorV2Interface(_vrfCoordinator);\n        LINKTOKEN = LinkTokenInterface(_linkToken);\n        s_keyHash = _keyhash;\n        s_subscriptionId = _subscriptionId;\n    }\n\n    function buyTicket(uint256 series_, uint256 ticketNumber_) external {\n        require(state == 0, \"Invalid state\");\n        require(series_ < noOfSeries && series_ != 0, \"Invalid series\");\n        require(\n            ticketNumber_ < noOfTicketsPerSeries && ticketNumber_ != 0,\n            \"Invalid ticket number\"\n        );\n        require(\n            lotteryTicketToHolder[series_][ticketNumber_] == address(0) &&\n                holderToLotteryTicket[msg.sender].ticketNumber == 0,\n            \"Ticket already bought\"\n        );\n\n        IERC20(token).transferFrom(msg.sender, address(this), ticketCost);\n\n        lotteryTicketToHolder[series_][ticketNumber_] = msg.sender;\n        holderToLotteryTicket[msg.sender] = LotteryTicket(series_,ticketNumber_);\n    }\n\n    function transitionToCashOutPeriod() external {\n        require(state == 0 && block.timestamp >= lastTimestamp + 7 days, \"Time period of buying period hasn't passed yet\");\n        // increment state\n        state++;\n        lastTimestamp = block.timestamp;\n\n        // record the pool funds\n        epochToPrizePool[currentEpoch] = IERC20(token).balanceOf(address(this));\n\n        // Request for randomness\n        requestRandomWords();\n    }\n\n    function transitionToBuyPeriod() external {\n        require(state == 1 && block.timestamp >= lastTimestamp + 2 days, \"Time period of cash-out period hasn't passed yet\");\n        // increment state\n        state = 0;\n        lastTimestamp = block.timestamp;\n        currentEpoch++;\n    }\n\n    function clawBackRemainingfunds() external {\n        require(state == 2, \"Invalid state\");\n        require(block.timestamp >= lastTimestamp + 2 days, \"Time period of cash-out period hasn't passed yet\");\n\n        uint256 poolBalance = IERC20(token).balanceOf(address(this));\n        IERC20(token).transfer(owner, poolBalance);\n    }\n\n    function cashOut() external {\n        // Get the winning ticket and user ticket of the current epoch\n        LotteryTicket memory seriesWinner = drawnNumbers[currentEpoch];\n        LotteryTicket storage userTicket = holderToLotteryTicket[msg.sender];\n        require(state == 1 || state == 2, \"Invalid state\");\n        require(seriesWinner.ticketNumber != 0, \"Winner not drawn yet\");\n        require(userTicket.ticketNumber != 0, \"User doesn't hold a ticket\");\n\n        uint256 totalPrizePool = epochToPrizePool[currentEpoch];\n        uint256 userPayout = 0;\n        uint256 ownerPayout = 0;\n        if (seriesWinner.ticketNumber == userTicket.ticketNumber) {\n            if (seriesWinner.series == userTicket.series) {\n                // If the tickets match fully\n                state = 2;\n                // Give user 70% of the pool\n                userPayout = (totalPrizePool * 70) / 100;\n                // Give the owner 4% of the pool\n                ownerPayout = (totalPrizePool * 4) / 100;\n            } else {\n                // If the last four numbers match\n                // Give user 4% of the pool\n                userPayout = (totalPrizePool * 4) / 100;\n            }\n        } else if (\n            seriesWinner.ticketNumber % 1000 == userTicket.ticketNumber % 1000\n        ) {\n            // If the last three numbers match\n            // Give user 2% of the pool\n            userPayout = uint(totalPrizePool * 2) / 100;\n        } else {\n            // If no numbers match\n            return;\n        }\n        IERC20(token).transfer(msg.sender, userPayout);\n\n        if (ownerPayout != 0) {\n            IERC20(token).transfer(owner, ownerPayout);\n        }\n\n        lotteryTicketToHolder[userTicket.series][\n            userTicket.ticketNumber\n        ] = address(0);\n\n        userTicket.series = 0;\n        userTicket.ticketNumber = 0;\n    }\n\n    \n    function requestRandomWords() internal {\n        // Will revert if subscription is not set and funded.\n        s_requestId = COORDINATOR.requestRandomWords(\n            s_keyHash,\n            s_subscriptionId,\n            s_requestConfirmations,\n            s_callbackGasLimit,\n            s_numWords\n        );\n    }\n\n\n    function fulfillRandomWords(uint256 requestId, uint256[] memory randomWords) internal override {\n        uint256 selectedSeries = randomWords[0] % 5;\n        uint256 selectedTicketNumber = randomWords[1] % 2001;\n\n        drawnNumbers[currentEpoch] = LotteryTicket(selectedSeries, selectedTicketNumber);\n    }\n}\n",
  "sourcePath": "contracts/Lotto.sol",
  "type": "contract"
}